:020000040000FA
:0600000077EF06F012008C
:06002A000100160D0000AC
:08003000800000001200000036
:080038005CEC04F0DAD90001D0
:100040009F51060A01E1ABD1030A01E180D1010A07
:1000500001E146D1070A01E1F4D0010A01E186D0AD
:10006000030A01E0C4D10001906B916B0001A36B06
:100070004DDAE7DA80C0E6FF81C0E6FFA1DBE5529A
:10008000E552E80EE66E030EE66EF8EC05F0E5527A
:10009000E5520001902B000E9123F00E8114000117
:1000A000A26FA2390F0BA26F0C0EA25D03E00B0E24
:1000B000A25D03E1010EA36F18D00A0EA25D03E05A
:1000C000090EA25D05E1A30503E0020EA36F0DD0AA
:1000D000080EA25D03E0070EA25D07E1A30505E09F
:1000E000020EA35D02E0030EA36F00018C51905D30
:1000F0008D519159BDE3F00E81140001A26FA23918
:100100000F0BA26F0C0EA25D03E00B0EA25D03E1CC
:10011000010EA36F18D00A0EA25D03E0090EA25DC6
:1001200005E1A30503E0020EA36F0DD0080EA25D4A
:1001300003E0070EA25D07E1A30505E0020EA35D43
:1001400002E0030EA36FA351D6E0A30503E1020E64
:100150009F6F0BD0020EA35D03E1030E9F6F05D0CE
:10016000030EA35D02E1040E9F6F41D10001906B6D
:10017000916B0001A36BCAD964DA82C0E6FF83C029
:10018000E6FF1EDBE552E552E80EE66E030EE66E74
:10019000F8EC05F0E552E5520001902B000E91239A
:1001A000F00E81140001A26FA2390F0BA26F0A0E8C
:1001B000A25D03E0090EA25D03E1010EA36F0FD063
:1001C000080EA25D03E0070EA25D05E1A30503E0B2
:1001D000020EA36F04D0A35102E1030EA36F00012E
:1001E0008C51905D8D519159C6E30A0E0001A25DBC
:1001F00003E0090EA25D03E1010EA36F0FD0080E0C
:10020000A25D03E0070EA25D05E1A30503E0020E77
:10021000A36F04D0A35102E1030EA36FA351E5E045
:10022000A30503E1030E9F6F0BD0020EA35D03E154
:10023000040E9F6F05D0030EA35D02E1010E9F6FB8
:10024000D6D00001906B916B0001A36B5FD9F9D9F7
:1002500084C0E6FF85C0E6FFB3DAE552E552E80E5A
:10026000E66E030EE66EF8EC05F0E552E55200018D
:10027000902B000E9123F00E81140001A26FA23981
:100280000F0BA26F080EA25D03E0070EA25D03E153
:10029000010EA36F04D0A30502E0020EA36F0001BC
:1002A0008C51905D8D519159D1E3080E0001A25DF2
:1002B00003E0070EA25D03E1010EA36F04D0A305C6
:1002C00002E0020EA36FA351F0E0A30503E1040EC8
:1002D0009F6F05D0020EA35D02E1010E9F6F87D0D4
:1002E0000001906B916B0001A36B10D9AAD986C055
:1002F000E6FF87C0E6FF64DAE552E552E80EE66EF7
:10030000030EE66EF8EC05F0E552E5520001902B85
:10031000000E9123F00E81140001A26FA2390F0B81
:10032000A26FA35102E1010EA36F00018C51905DF9
:100330008D519159DAE30001A35102E1010EA36F3F
:10034000A351F9E0A30502E1010E9F6F50D0000117
:10035000906B916B0001A36BD9D873D988C0E6FF6D
:1003600089C0E6FF2DDAE552E552E80EE66E030E8F
:10037000E66EF8EC05F0E552E5520001902B000E18
:100380009123F00E81140001A26FA2390F0BA26F0E
:1003900000018C51905D8D519159DEE328D0000110
:1003A000906B916B0001A36BB1D84BD98AC0E6FF6B
:1003B0008BC0E6FF05DAE552E552E80EE66E030E65
:1003C000E66EF8EC05F0E552E5520001902B000EC8
:1003D0009123F00E81140001A26FA2390F0BA26FBE
:1003E00000018C51905D8D519159DEE300D027D6EC
:1003F0001200C00EE66E080EE66E2DEC06F0E55219
:10040000E552C580C5BCFED7C750040B01E0010E04
:100410000B6E1F0EC5140B1001E0F6D7D00EE66E62
:1004200048EC06F0E552C5BCFED7C750040B01E00E
:10043000010E0B6E1F0EC5140B1001E0F6D7070E50
:10044000E66E48EC06F0E552C5BCFED7C750040B7B
:1004500001E0010E0B6E1F0EC5140B1001E0F6D764
:10046000100EE66E48EC06F0E552C5BCFED7C7504C
:10047000040B01E0010E0B6E1F0EC5140B1001E002
:10048000F6D7C584C750040B01E0010E0B6E1F0E9A
:10049000C5140B1001E0F6D7C580C750040B01E06E
:1004A000010E0B6E1F0EC5140B1001E0F6D7D00E17
:1004B000E66E48EC06F0E552C5BCFED7C750040B0B
:1004C00001E0010E0B6E1F0EC5140B1001E0F6D7F4
:1004D000D10EE66E48EC06F0E552C5BCFED7C7501B
:1004E000040B01E0010E0B6E1F0EC5140B1001E092
:1004F000F6D7C584C750040B01E0010E0B6E1F0E2A
:10050000C5140B1001E0F6D7C69A1200C00EE66EB5
:10051000080EE66E2DEC06F0E552E552C750040BCE
:1005200001E0010E0B6E1F0EC5140B1001E0F6D793
:10053000C580D00EE66E48EC06F0E552C5BCFED78D
:10054000C750040B01E0010E0B6E1F0EC5140B10FB
:1005500001E0F6D7E66A48EC06F0E552C5BCFED7E6
:10056000C750040B01E0010E0B6E1F0EC5140B10DB
:1005700001E0F6D7C584C750040B01E0010E0B6EF5
:100580001F0EC5140B1001E0F6D7C580C750040B31
:1005900001E0010E0B6E1F0EC5140B1001E0F6D723
:1005A000D10EE66E48EC06F0E552C5BCFED7C7504A
:1005B000040B01E0010E0B6E1F0EC5140B1001E0C1
:1005C000F6D785EC06F07F0B00019E6FC59AC588B3
:1005D000C750040B01E0010E0B6E1F0EC5140B106B
:1005E00001E0F6D785EC06F07F0B00019D6FC59A00
:1005F000C588C750040B01E0010E0B6E1F0EC51419
:100600000B1001E0F6D785EC06F03F0B00019C6F64
:10061000C58AC588C750040B01E0010E0B6E1F0E82
:10062000C5140B1001E0F6D7C584C750040B01E0D8
:10063000010E0B6E1F0EC5140B1001E0F6D7C69A03
:100640001200010EE66E1CEC05F0E5520D0EE66E92
:1006500060EC06F0E55200019C390F0B300FE66E9E
:1006600000EC05F0E55200019C390F0B300FE66EEF
:1006700060EC06F0E5520F0E00019C15300FE66E9F
:1006800000EC05F0E5520F0E00019C15300FE66EF0
:1006900060EC06F0E552200EE66E00EC05F0E55247
:1006A000200EE66E60EC06F0E55200019D390F0B5E
:1006B000300FE66E00EC05F0E55200019D390F0B9E
:1006C000300FE66E60EC06F0E5520F0E00019D154E
:1006D000300FE66E00EC05F0E5520F0E00019D159F
:1006E000300FE66E60EC06F0E552200EE66E00EC90
:1006F00005F0E552200EE66E60EC06F0E5520001D2
:100700009E390F0B300FE66E00EC05F0E55200014C
:100710009E390F0B300FE66E60EC06F0E5520F0EBF
:1007200000019E15300FE66E00EC05F0E5520F0E4D
:1007300000019E15300FE66E60EC06F0E5521200E7
:10074000010EE66E1CEC05F0E55200019C390F0B22
:10075000300FE66E00EC05F0E5520F0E00019C151F
:10076000300FE66E00EC05F0E552200EE66E00EC70
:1007700005F0E55200019D390F0B300FE66E00ECDD
:1007800005F0E5520F0E00019D15300FE66E00ECEE
:1007900005F0E552200EE66E00EC05F0E552000192
:1007A0009E390F0B300FE66E00EC05F0E5520F0E90
:1007B00000019E15300FE66E00EC05F0E5521200C8
:1007C000D9CFE6FFE1CFD9FFFD0EDBCF06F0FE0E5D
:1007D000DBCF07F0060E061801E1075028E0050EF2
:1007E000061801E1075020E0040E061801E1075049
:1007F00018E0030E061801E1075010E0020E06187B
:1008000001E1075008E0010E061801E1075001E080
:1008100011D0806A0FD0010E806E0CD0020E806E57
:1008200009D0030E806E06D0040E806E03D0050E34
:10083000806E00D0E552E7CFD9FF1200D9CFE6FF96
:10084000E1CFD9FFFD0EDBCF06F0FE0EDBCF07F0C8
:10085000060E061801E1075028E0050E061801E112
:10086000075020E0040E061801E1075018E0030EBF
:10087000061801E1075010E0020E061801E10750CA
:1008800008E0010E061801E1075001E011D0806A6E
:100890000FD0010E806E0CD0020E806E09D0030EB8
:1008A000806E06D0040E806E03D0050E806E00D0E0
:1008B000E552E7CFD9FF1200838A080E946E956A3D
:1008C000F00E926E9368806A836A816A838E00015B
:1008D000010E9F6F190EE66EE66A3C0EE66EBBECEB
:0A08E00005F0E552E552E552120062
:0608EA00956A836A838E0B
:1008F000839A0F0EE66EE66AF8EC05F0E552E552D3
:10090000300EE66E3FD8E552050EE66EE66AF8EC6C
:1009100005F0E552E552300EE66E34D8E552010E90
:10092000E66EE66AF8EC05F0E552E552300EE66E4A
:1009300029D8E552010EE66EE66AF8EC05F0E552BC
:10094000E552200EE66E1ED8E552010EE66EE66A0E
:10095000F8EC05F0E552E552280EE66E26D8E55291
:10096000080EE66E22D8E552010EE66E1ED8E5525C
:10097000060EE66E1AD8E5520C0EE66E16D8E55253
:1009800083881200D9CFE6FFE1CFD9FFF00E8314A0
:10099000836EFE0EDB380F0B0F0B8310836E838C80
:1009A000839CE552E7CFD9FF1200D9CFE6FFE1CF14
:1009B000D9FFFE0EDB380F0B0F0B0B6EF00E8314FE
:1009C0000B10836E838C839C060EE66EE66AF8EC51
:1009D00005F0E552E552FE0EDB500F0B0B6EF00EEC
:1009E00083140B10836E838C839C060EE66EE66A7E
:1009F000F8EC05F0E552E552E552E7CFD9FF1200D9
:100A0000D9CFE6FFE1CFD9FFFE0EDBCFE6FFCDDF8A
:100A1000E552E552E7CFD9FF1200D9CFE6FFE1CF8B
:100A2000D9FF8398FE0EDBCFE6FFBFDFE552838858
:100A3000E552E7CFD9FF1200D9CFE6FFE1CFD9FFCA
:100A4000FE0EDB507F0FE66EE8DFE552E552E7CFA2
:100A5000D9FF1200D9CFE6FFE1CFD9FFFE0EDB5060
:100A6000BF0FE66EDADFE552E552E7CFD9FF12009D
:100A7000010EE66ED2DFE5523C0EE66EE66AF8EC59
:100A800005F0E552E5521200D9CFE6FFE1CFD9FFDC
:100A9000020EE126FD0EDBCFDEFFDBCFDDFFDECF7A
:100AA000E9FFDDCFEAFFEF500DE0DECFE9FFDDCF5C
:100AB000EAFFEF50E66E79DFE552DF2A010E01E32F
:100AC000DB2AEDD7020EE15C02E2E16AE552E16E5B
:080AD000E552E7CFD9FF120047
:080AD8002A0EF66E000EF76E07
:100AE000000EF86E00010900F550976F0900F550EF
:100AF000986F03E1976701D03DD00900F550926FE0
:100B00000900F550936F0900F550946F0900090032
:100B1000F550E96E0900F550EA6E09000900090078
:100B2000F550956F0900F550966F09000900F6CF52
:100B300099F0F7CF9AF0F8CF9BF092C0F6FF93C0F0
:100B4000F7FF94C0F8FF0001955302E1965307E0C8
:100B50000900F550EE6E9507F8E29607F9D799C0AF
:100B6000F6FF9AC0F7FF9BC0F8FF00019707000E41
:060B7000985BBFD71200E4
:0A0B7600D9CFE6FFDACFE6FFE1CFAA
:100B8000D9FFE2CFDAFFAC6AAB6AFD0EDBB0AC880E
:100B9000DBA202D0AC8CAB8CDBB4AC8EDBA602D07B
:100BA000AB8801D0AB8ADBA802D0AC8401D0AC9476
:100BB0009E98DBAC02D09D8A01D09D9A9E9ADBAEB6
:100BC00002D09D8801D09D98FB0EDB50AF6EFB0ECE
:100BD000FC0EDBCF0CF00CC00BF00C6A0B50B06EAF
:100BE000AC8AAB8EE552E5CFDAFFE7CFD9FF120032
:100BF000D9CFE6FFE1CFD9FF020EE126D950FD0F94
:100C0000E96EFF0EDA20EA6E000ED880EE54000E78
:100C1000ED5419E2DE6ADD6ADECF0BF0DDCF0CF0B9
:100C2000D8900C5004E6360E0B5C000E0C5805E212
:100C3000DF2A010E01E3DB2AEFD7FD0EDB06FE0EF5
:100C400001E2DB06DBD7020EE15C02E2E16AE5527B
:0A0C5000E16EE552E7CFD9FF120074
:060C5A00D9CFE6FFDACF5E
:100C6000E6FFE1CFD9FFE2CFDAFF3F0EC716C66A33
:100C7000C56AFD0EDB50C612FC0EDB50C71294860F
:100C80009488C68AE552E5CFDAFFE7CFD9FF120094
:100C9000D9CFE6FFDACFE6FFE1CFD9FFE2CFDAFF27
:100CA000FD0EDB50C96EC6AE02D0FF0E03D0C7B03A
:100CB000FED7000EE552E5CFDAFFE7CFD9FF1200ED
:100CC000D9CFE6FFDACFE6FFE1CFD9FFE2CFDAFFF7
:100CD000ACAC04D0AC900001A4B3AC80FD0EDB50F2
:0E0CE000AD6EE552E5CFDAFFE7CFD9FF120087
:020CEE0015EE01
:100CF00000F025EE00F0F86A0A9C6CEC05F08AEC36
:0A0D000006F01CEC00F0FBD7120017
:060D0A00C586C7A0FED75C
:040D1000C9501200B4
:020D14001200CB
:0A0D160001000200030004000500C4
:080D200006000A001E0000009D
:020000040030CA
:0100010001FD
:0100020019E4
:010003001EDE
:010005008179
:010006008178
:00000001FF
